{
  "_format": "hh-sol-artifact-1",
  "contractName": "Escrow",
  "sourceName": "contracts/Escrow.sol",
  "abi": [
    {
      "inputs": [
        {
          "internalType": "address",
          "name": "_seller",
          "type": "address"
        },
        {
          "internalType": "address",
          "name": "_developer",
          "type": "address"
        }
      ],
      "stateMutability": "payable",
      "type": "constructor"
    },
    {
      "anonymous": false,
      "inputs": [
        {
          "indexed": false,
          "internalType": "address",
          "name": "to",
          "type": "address"
        },
        {
          "indexed": false,
          "internalType": "uint256",
          "name": "amount",
          "type": "uint256"
        }
      ],
      "name": "FundsReleased",
      "type": "event"
    },
    {
      "anonymous": false,
      "inputs": [
        {
          "indexed": false,
          "internalType": "address",
          "name": "to",
          "type": "address"
        },
        {
          "indexed": false,
          "internalType": "uint256",
          "name": "amount",
          "type": "uint256"
        }
      ],
      "name": "TransactionCancelled",
      "type": "event"
    },
    {
      "inputs": [],
      "name": "amount",
      "outputs": [
        {
          "internalType": "uint256",
          "name": "",
          "type": "uint256"
        }
      ],
      "stateMutability": "view",
      "type": "function"
    },
    {
      "inputs": [],
      "name": "buyer",
      "outputs": [
        {
          "internalType": "address",
          "name": "",
          "type": "address"
        }
      ],
      "stateMutability": "view",
      "type": "function"
    },
    {
      "inputs": [],
      "name": "developer",
      "outputs": [
        {
          "internalType": "address",
          "name": "",
          "type": "address"
        }
      ],
      "stateMutability": "view",
      "type": "function"
    },
    {
      "inputs": [],
      "name": "getBalance",
      "outputs": [
        {
          "internalType": "uint256",
          "name": "",
          "type": "uint256"
        }
      ],
      "stateMutability": "view",
      "type": "function"
    },
    {
      "inputs": [],
      "name": "isCompleted",
      "outputs": [
        {
          "internalType": "bool",
          "name": "",
          "type": "bool"
        }
      ],
      "stateMutability": "view",
      "type": "function"
    },
    {
      "inputs": [],
      "name": "refundBuyer",
      "outputs": [],
      "stateMutability": "nonpayable",
      "type": "function"
    },
    {
      "inputs": [],
      "name": "releaseFunds",
      "outputs": [],
      "stateMutability": "nonpayable",
      "type": "function"
    },
    {
      "inputs": [],
      "name": "seller",
      "outputs": [
        {
          "internalType": "address",
          "name": "",
          "type": "address"
        }
      ],
      "stateMutability": "view",
      "type": "function"
    }
  ],
  "bytecode": "0x608060405260405162000c9238038062000c928339818101604052810190620000299190620001c5565b600034116200006f576040517f08c379a0000000000000000000000000000000000000000000000000000000008152600401620000669062000293565b60405180910390fd5b336000806101000a81548173ffffffffffffffffffffffffffffffffffffffff021916908373ffffffffffffffffffffffffffffffffffffffff16021790555081600160006101000a81548173ffffffffffffffffffffffffffffffffffffffff021916908373ffffffffffffffffffffffffffffffffffffffff16021790555080600260006101000a81548173ffffffffffffffffffffffffffffffffffffffff021916908373ffffffffffffffffffffffffffffffffffffffff160217905550346003819055506000600460006101000a81548160ff0219169083151502179055505050620002b5565b600080fd5b600073ffffffffffffffffffffffffffffffffffffffff82169050919050565b60006200018d8262000160565b9050919050565b6200019f8162000180565b8114620001ab57600080fd5b50565b600081519050620001bf8162000194565b92915050565b60008060408385031215620001df57620001de6200015b565b5b6000620001ef85828601620001ae565b92505060206200020285828601620001ae565b9150509250929050565b600082825260208201905092915050565b7f4861727573206d656e676972696d6b616e2064616e6120756e74756b206d656d60008201527f756c616920457363726f77000000000000000000000000000000000000000000602082015250565b60006200027b602b836200020c565b915062000288826200021d565b604082019050919050565b60006020820190508181036000830152620002ae816200026c565b9050919050565b6109cd80620002c56000396000f3fe608060405234801561001057600080fd5b50600436106100885760003560e01c8063aa8c217c1161005b578063aa8c217c146100f1578063ca4b208b1461010f578063e8a61cc81461012d578063fa391c641461013757610088565b806308551a531461008d57806312065fe0146100ab57806369d89575146100c95780637150d8ae146100d3575b600080fd5b610095610155565b6040516100a29190610643565b60405180910390f35b6100b361017b565b6040516100c09190610677565b60405180910390f35b6100d1610183565b005b6100db6103de565b6040516100e89190610643565b60405180910390f35b6100f9610402565b6040516101069190610677565b60405180910390f35b610117610408565b6040516101249190610643565b60405180910390f35b61013561042e565b005b61013f6105ef565b60405161014c91906106ad565b60405180910390f35b600160009054906101000a900473ffffffffffffffffffffffffffffffffffffffff1681565b600047905090565b60008054906101000a900473ffffffffffffffffffffffffffffffffffffffff1673ffffffffffffffffffffffffffffffffffffffff163373ffffffffffffffffffffffffffffffffffffffff1614610211576040517f08c379a00000000000000000000000000000000000000000000000000000000081526004016102089061074b565b60405180910390fd5b600460009054906101000a900460ff1615610261576040517f08c379a0000000000000000000000000000000000000000000000000000000008152600401610258906107b7565b60405180910390fd5b6001600460006101000a81548160ff02191690831515021790555060006064600160035461028f9190610806565b6102999190610877565b90506000816003546102ab91906108a8565b9050600160009054906101000a900473ffffffffffffffffffffffffffffffffffffffff1673ffffffffffffffffffffffffffffffffffffffff166108fc829081150290604051600060405180830381858888f19350505050158015610315573d6000803e3d6000fd5b50600260009054906101000a900473ffffffffffffffffffffffffffffffffffffffff1673ffffffffffffffffffffffffffffffffffffffff166108fc839081150290604051600060405180830381858888f1935050505015801561037e573d6000803e3d6000fd5b507f221c08a06b07a64803b3787861a3f276212fcccb51c2e6234077a9b8cb13047a600160009054906101000a900473ffffffffffffffffffffffffffffffffffffffff16826040516103d29291906108dc565b60405180910390a15050565b60008054906101000a900473ffffffffffffffffffffffffffffffffffffffff1681565b60035481565b600260009054906101000a900473ffffffffffffffffffffffffffffffffffffffff1681565b600260009054906101000a900473ffffffffffffffffffffffffffffffffffffffff1673ffffffffffffffffffffffffffffffffffffffff163373ffffffffffffffffffffffffffffffffffffffff16146104be576040517f08c379a00000000000000000000000000000000000000000000000000000000081526004016104b590610977565b60405180910390fd5b600460009054906101000a900460ff161561050e576040517f08c379a0000000000000000000000000000000000000000000000000000000008152600401610505906107b7565b60405180910390fd5b6001600460006101000a81548160ff02191690831515021790555060008054906101000a900473ffffffffffffffffffffffffffffffffffffffff1673ffffffffffffffffffffffffffffffffffffffff166108fc6003549081150290604051600060405180830381858888f19350505050158015610591573d6000803e3d6000fd5b507fdceb09d55d6cf1424fafc2f14ad2b30c9e2cae7d1b5f28ef953c630ffef6659e60008054906101000a900473ffffffffffffffffffffffffffffffffffffffff166003546040516105e59291906108dc565b60405180910390a1565b600460009054906101000a900460ff1681565b600073ffffffffffffffffffffffffffffffffffffffff82169050919050565b600061062d82610602565b9050919050565b61063d81610622565b82525050565b60006020820190506106586000830184610634565b92915050565b6000819050919050565b6106718161065e565b82525050565b600060208201905061068c6000830184610668565b92915050565b60008115159050919050565b6106a781610692565b82525050565b60006020820190506106c2600083018461069e565b92915050565b600082825260208201905092915050565b7f48616e79612042757965722079616e672062697361206d656c616b756b616e2060008201527f696e690000000000000000000000000000000000000000000000000000000000602082015250565b60006107356023836106c8565b9150610740826106d9565b604082019050919050565b6000602082019050818103600083015261076481610728565b9050919050565b7f5472616e73616b73692073756461682073656c65736169000000000000000000600082015250565b60006107a16017836106c8565b91506107ac8261076b565b602082019050919050565b600060208201905081810360008301526107d081610794565b9050919050565b7f4e487b7100000000000000000000000000000000000000000000000000000000600052601160045260246000fd5b60006108118261065e565b915061081c8361065e565b925082820261082a8161065e565b91508282048414831517610841576108406107d7565b5b5092915050565b7f4e487b7100000000000000000000000000000000000000000000000000000000600052601260045260246000fd5b60006108828261065e565b915061088d8361065e565b92508261089d5761089c610848565b5b828204905092915050565b60006108b38261065e565b91506108be8361065e565b92508282039050818111156108d6576108d56107d7565b5b92915050565b60006040820190506108f16000830185610634565b6108fe6020830184610668565b9392505050565b7f48616e796120446576656c6f7065722079616e672062697361206d656c616b7560008201527f6b616e20696e6900000000000000000000000000000000000000000000000000602082015250565b60006109616027836106c8565b915061096c82610905565b604082019050919050565b6000602082019050818103600083015261099081610954565b905091905056fea2646970667358221220dd42628f3e041bf1538b3829743d18477334275c54557c71598a8f278d4a8eb064736f6c63430008180033",
  "linkReferences": {},
  "deployedLinkReferences": {}
}